segwit tx

```
LEGACY TX FORMAT
version
list of inputs
        txid
        output index (vout)
        scriptSig
        sequence
list of outputs
        amount
        scriptPubKey
locktime


SEGWIT TX FORMAT 
version
segwit marker + flag
list of inputs
        txid
        output index (vout)
        scriptSig
        sequence
list of outputs
        amount
        scriptPubKey
list of "witness stacks"
        count of items in the stack
        ... items
locktime


```

what the txid about segwit:
```
example:

LEGACY

version: 01000000
inputs:  01
        txid: f3969d3f956aef1f67f7dd3c176672797e37c376b556337b814477e19730c3da
        vout: 00000000
        scriptSig: 2e 15686176652066756e2073746179696e6720706f6f721715686176652066756e2073746179696e6720706f6f7287
        sequence:  feffffff
outputs: 01
        amout: 30d9f50500000000
        scriptPubKey: 17 a914fb528f99064469fd19f1fc7f105a9fd324c7160787
locktime: 00000000


SEGWIT TX:

version: 01000000
> segwit marker+flag: 0001
inputs:  01
        txid: f3969d3f956aef1f67f7dd3c176672797e37c376b556337b814477e19730c3da
        vout: 00000000
        scriptSig: 00
        sequence:  feffffff
outputs: 01
        amout: 30d9f50500000000
        scriptPubKey: 17 a914fb528f99064469fd19f1fc7f105a9fd324c7160787
> witness stacks:
>       02
>       15 686176652066756e2073746179696e6720706f6f72
>       17 15686176652066756e2073746179696e6720706f6f7287
locktime: 00000000
```

how to find txids?

        sha256(sha256(data))

segwit txid data without >data

the txid of a segwit transaction is the double-sha (aka hash256) of legacy transaction bytes


```python
>>> data = bytes.fromhex('0100000001f3969d3f956aef1f67f7dd3c176672797e37c376b556337b814477e19730c3da0000000000feffffff0130d9f5050000000017a914fb528f99064469fd19f1fc7f105a9fd324c716078700000000')
>>> sha256(sha256(data).digest()).digest()[::-1].hex()
>>> 03c776a86f8541900e66d2cac89e22c696042fa5095e6d7615d30b3d2698753f
```

txid fee?

```
SEGWIT TX:
size : 132
vbytes:96
weight:381

formula! any legacy bytes have a weight of 4!
         any segwit bytes hace a weight of 1!



version: 01000000                                -> 4 * 4 = 16
> segwit marker+flag: 0001                       -> 2 * 1 = 2
        inputs:  01                              -> 1 * 4 = 4
        txid: f3969d3f956aef1f67f7dd3c176672797e37c376b556337b814477e19730c3da        -> 32 * 4 = 128
        vout: 00000000                           -> 4 * 4 = 16
        scriptSig: 00                            -> 1 * 4 = 4
        sequence:  feffffff                      -> 4 * 4 = 16
outputs: 01                                      -> 1 * 4 = 4
        amout: 30d9f50500000000                  -> 8 * 4 = 32
        scriptPubKey: 17 a914fb528f99064469fd19f1fc7f105a9fd324c7160787               -> 24 * 4 = 96
> witness stacks:
>       02                                                       -> 1  * 1 = 1
>       15 686176652066756e2073746179696e6720706f6f72            -> 22 * 1 = 22
>       17 15686176652066756e2073746179696e6720706f6f7287        -> 24 * 1 = 24
locktime: 00000000                               -> 4 * 4 = 16
```



