```
bc getrawtransation 65910a2ea90391d1d19be66ef8b1718cecbb49fc48887f743d6a099f869b08f3

0100000001913f3edcafa48bcd5742225a752f3dd8cef35596dfb0fce551c5b455ce0a02d63b0000006a473044022062f4f61766e1edf89b9b94d0629d67bfefb62e6ffec63f17d0f10ce5e329dbf4022039d566558c1f98742345e70b194bbcb8b8fff5b7fa2f0507c9f31a5a2ea24749012103fc3e6b07b7bec800cb0861c172344687d146888aaf0f811eaca8b1ef6684c9fc0000008002f07e0e000000000017a914783b39e49c6b6544a51bf0cbd4f47eef116be81987e0ec0400000000001976a91456c0bc2f50bc150d4ea122e66db7c48b01b9722988ac00000000



      version(always 4 bytes):  01000000      -> little endian
              count of inputs:  01            -> compactSize
        txid(always 32 bytes):  913f3edcafa48bcd5742225a752f3dd8cef35596dfb0fce551c5b455ce0a02d6      ->
                output number:  3b000000      -> little endian (always 8-bytes)  (59)
  scriptSig(unlocking script):  6a 473044022062f4f61766e1edf89b9b94d0629d67bfefb62e6ffec63f17d0f10ce5e329dbf4022039d566558c1f98742345e70b194bbcb8b8fff5b7fa2f0507c9f31a5a2ea24749012103fc3e6b07b7bec800cb0861c172344687d146888aaf0f811eaca8b1ef6684c9fc
                    nSequence:  00000080      -> fixed 4-bytes

             count of outputs:  02            -> compactSize field
                       amount:  f07e0e0000000000  ->how much bitcoin is this "output" worth  (always 8-bytes  little endians)
 scriptPubkey(locking script):  17 a914783b39e49c6b6544a51bf0cbd4f47eef116be81987      ->(variable length  bit endians)

                       amount:  e0ec040000000000
 scriptPubkey(locking script):  19 76a91456c0bc2f50bc150d4ea122e66db7c48b01b9722988ac
                    nlocktime:  00000000      -> 4-bytes fixed

                    fixed are always little endians
```


python 相关操作：
``` python
int(bytes.fromhex('e0ec040000000000')[::-1].hex(),16) + int(bytes.fromhex('f07e0e0000000000')[::-1].hex(),16)
```

```
01000000
00
01
01
7b88f7f2ecb1e2cbe3a28c8c9958a1d830f972cee2528d77c953715153ebd036
00000000
1716001463f496878b0fbdcf0afcc293d7f8b7003f9076a7
ffffffff
43
052c000000000000160014fd12afdebdae81e03a56b8cc43f36ab79bbab17305ca01000000000017a9143b78d99dcd8c2d577d9d304dc7882b8845e5bb7487268803000000000016001433a4aa71f0d01cc90c3be00c3d719160042a348406b003000000000017a9141fd45f63461f6ccbb8d35807f76914c08345bbed8786090600000000001976a914528ce211c7699743e98e79ad19f984f8823f8a3f88acd3621300000000001600141e9fef221592583614048adc9d2941844d37b35c268803000000000016001433a4aa71f0d01cc90c3be00c3d719160042a3484d24400000000000017a914c82cd07c268a1a4198c77fb6505282a2bdd584a88799e00200000000001600142ab1909058d8c90efddbe17a6733294a8199f40653ca01000000000016001440559d41deb2cec16d4b38e09f61e63c8b1437f2141301000000000017a914beef3eaac5c8379b6b0c4ddf7d6f8bb49f82eeca878ee00200000000001600145707d998bc6557c0edbab9ac16c5caad7cd8f96e268803000000000016001433a4aa71f0d01cc90c3be00c3d719160042a34840d6c03000000000017a914921d27423a3753c397d684d4e74f165baa48cac087c46400000000000017a914bd9f53a4ff37a562aa5b75fe6f051ba8f6cfc89787357700000000000017a914019383058243be9494733534532874ab155e0654871cde3301000000001976a91463b704101f1ec4926cf3a01f88df12089698c33588accea8d6000000000017a914ce65b255bc1b6e990962d8bfc4267f625cc4aa518757dc00000000000017a914d85d1b28736ff236d1f074f63e3a4a7837f0118c87ea1f0100000000002200200af690634fdc74739ed78ebc953b5cb78ee5cf8014457a019e3e9dea18e2a78367c1030000000000160014ced06e525a76783f88877e6773f66c061a9282b32989000000000000160014b8425ba3133b13a806f491cba4c714d150fe4d07078b450000000000160014eea94a786eef3bf2ba0f5e8483939cc069dc6a209e0609000000000017a914e5c493de73c4ba1c496355beb5e7ddeec4db7e53871e5e00000000000017a9141e68c8e8dd09e5160b4cee73cc3f8fca56f661ad8750a50500000000001976a9146c831dfb9f68a53abcb2ee9ff1e25ab0fb41bdbd88ac722a8a000000000017a914b25e6b4383459ff9537017d53c0a210411b0985187e94a0b00000000001976a9144a8adad07d795421bc30c9304256a6448f160c0888ac5232860c000000001600143f12997ab8c18896e1f96480f72199978e41b4ab55fe23000000000017a9149a4992cd764d9c60de3247ca45d173ab2d6aab1787e09304000000000017a9144c1103ef61bd9f3152a806238b055cbd732ff898872989000000000000160014b8425ba3133b13a806f491cba4c714d150fe4d07075f050000000000160014b335a61c65706b02377f59c7d5b6cc0ff795293751a902000000000017a91410b915625c026f1d520002c46c006141fdf5bb9f87b9a10d000000000017a914e255395ba023008d4da799e6a10aeec10e7d899d87d49e0f000000000017a914e5b08ab6042cab91aa8ea5b308c2a7ff46b6748587631b08000000000017a914c47e949224a93a50be8071899c2c1809e4c1117b87963000000000000017a914d301601da4be92708ac880efb161bb6b777abbe08794c20700000000001976a9147d78fb151c25ae15e6e2bcab0d81c1834742684a88acb15b00000000000017a914d4634875ec98e07f11bd702bf775b32e473b062d87488f08000000000017a91438cbd3ba9bd885711feff0ddb0a8b3ea609cc2998799b401000000000017a914fd66454803b6aab0a972b23fb62c427d846dde47872e8f0a000000000017a9145ccd1ff655842882a556cf226f62fc0817e1e87a879a2f01000000000017a91497c009e56ef9add04ac38c6701d448492b3e77a38722a601000000000017a914cdf1221c6aa00c7a13975f9cf7e0f98b729f714f87828900000000000017a9141e2cbb8c52236cd44a399ddb81fa8ef5ccf5fbe387a6e611000000000016001467f919a1eecfcdcaa8b47c8b1096c1e4f3e7c02e2f8503000000000017a9142c1ce165c1d99888af950632690d93b8d1b09f2287fce40000000000001976a9142ad7348a5ce96d3526ca8e3e7659ce5a3f3b43dd88ac7e4b0100000000001976a9144759fad7087a2698dea788966611dbf49327738088ac2f481100000000001976a91429a0260bc97f5e34604ce0a21efa05cd7462573e88ac4dc101000000000017a914e47aae867ec88f7832e6dde4b732934052faf62c870dde0f000000000017a91478b6f516584585f440d54972a189b57b3ca7c168876a0804000000000017a9145d051afde25c8b6f96dabb9edc4cea1432d1ba10870dcb01000000000017a9142664ea5150972ac4c097ed22ef9c3bf7519ded6587baf301000000000017a914ab9d49a76064928a22c5568b333289a7705ec7a7874e180100000000001976a914fb402b1509680430987c77216148e29b8f31336e88ac5bca0400000000001976a914e301bc3e247101b86d53c6a34222928a116e850b88ac0de009000000000017a914e2e94b2f6f2a00aed2378beb0933ec2458a8589387c5111400000000001976a9141204fe7ba32421865e067e8415225847dc213b2688ac724400000000000017a914b6830599bce6270bb8cffec870422221b4755d2e87758b02000000000017a91444d8ef7d3422007a7ef59c0aeaaf219adade6f7b8746b002000000000017a914740ec0c5fc4281e04e77f90026462242d9b94512879ff70000000000001976a9144337df2e09837402c74876e1cdf7b7031fd0ce0988ac6b2511000000000017a9147d909bf4627bb693a878855f0c626fb21c27a7f987056b03000000000017a914d25bb8c9aba042f50decf3acf109c4e207c246ab87cd2c00000000000017a914bf2b776c06b26d1ec86b4068da2bfe3c694c327e8702483045022100d1f1d0ca5d7a302244d3a57771e0e59e4f2ff6991ca8d905f56aa31da94bc931022063f3f7a8a82b2a096687a0c05ae351c57bdf0c18fbc273a4848e73ceb9fd6359012102032bf5666ecfb1e70198fc2d6f2e014537ac97a5091ca559365c34c3b7a4e9e500000000


1315269
1272784
```
