```
bc getrawtransation 65910a2ea90391d1d19be66ef8b1718cecbb49fc48887f743d6a099f869b08f3

0100000001913f3edcafa48bcd5742225a752f3dd8cef35596dfb0fce551c5b455ce0a02d63b0000006a473044022062f4f61766e1edf89b9b94d0629d67bfefb62e6ffec63f17d0f10ce5e329dbf4022039d566558c1f98742345e70b194bbcb8b8fff5b7fa2f0507c9f31a5a2ea24749012103fc3e6b07b7bec800cb0861c172344687d146888aaf0f811eaca8b1ef6684c9fc0000008002f07e0e000000000017a914783b39e49c6b6544a51bf0cbd4f47eef116be81987e0ec0400000000001976a91456c0bc2f50bc150d4ea122e66db7c48b01b9722988ac00000000



      version(always 4 bytes):  01000000
              count of inputs:  01
                         txid:  913f3edcafa48bcd5742225a752f3dd8cef35596dfb0fce551c5b455ce0a02d6
                output number:  3b000000
  scriptSig(unlocking script):  6a 473044022062f4f61766e1edf89b9b94d0629d67bfefb62e6ffec63f17d0f10ce5e329dbf4022039d566558c1f98742345e70b194bbcb8b8fff5b7fa2f0507c9f31a5a2ea24749012103fc3e6b07b7bec800cb0861c172344687d146888aaf0f811eaca8b1ef6684c9fc
                    nSequence:  00000080

             count of outputs:  02
                       amount:  f07e0e0000000000  ->how much bitcoin is this "output" worth
 scriptPubkey(locking script):  17 a914783b39e49c6b6544a51bf0cbd4f47eef116be81987

                       amount:  e0ec040000000000
 scriptPubkey(locking script):  19 76a91456c0bc2f50bc150d4ea122e66db7c48b01b9722988ac
                    nlocktime:  00000000


```
